{"contracts/CryptoKids.sol":{"CryptoKids":{"abi":[{"inputs":[],"stateMutability":"nonpayable","type":"constructor"},{"anonymous":false,"inputs":[{"indexed":true,"internalType":"address","name":"addr","type":"address"},{"indexed":false,"internalType":"uint256","name":"amount","type":"uint256"}],"name":"KidWithdrawn","type":"event"},{"anonymous":false,"inputs":[{"indexed":true,"internalType":"address","name":"addr","type":"address"},{"indexed":false,"internalType":"uint256","name":"amount","type":"uint256"},{"indexed":false,"internalType":"uint256","name":"contractBalance","type":"uint256"}],"name":"LogKidFundingReceived","type":"event"},{"inputs":[{"internalType":"address payable","name":"walletAddress","type":"address"},{"internalType":"string","name":"firstName","type":"string"},{"internalType":"string","name":"lastName","type":"string"},{"internalType":"uint256","name":"releaseTime","type":"uint256"}],"name":"addKid","outputs":[],"stateMutability":"nonpayable","type":"function"},{"inputs":[{"internalType":"address","name":"walletAddress","type":"address"}],"name":"availableToWithdraw","outputs":[{"internalType":"bool","name":"","type":"bool"}],"stateMutability":"nonpayable","type":"function"},{"inputs":[],"name":"balanceOf","outputs":[{"internalType":"uint256","name":"","type":"uint256"}],"stateMutability":"view","type":"function"},{"inputs":[{"internalType":"address","name":"walletAddress","type":"address"}],"name":"deposit","outputs":[],"stateMutability":"payable","type":"function"},{"inputs":[{"internalType":"uint256","name":"","type":"uint256"}],"name":"kids","outputs":[{"internalType":"address payable","name":"walletAddress","type":"address"},{"internalType":"string","name":"firstName","type":"string"},{"internalType":"string","name":"lastName","type":"string"},{"internalType":"uint256","name":"releaseTime","type":"uint256"},{"internalType":"uint256","name":"amount","type":"uint256"},{"internalType":"bool","name":"canWithdraw","type":"bool"}],"stateMutability":"view","type":"function"},{"inputs":[],"name":"owner","outputs":[{"internalType":"address","name":"","type":"address"}],"stateMutability":"view","type":"function"},{"inputs":[],"name":"withdraw","outputs":[],"stateMutability":"nonpayable","type":"function"}],"evm":{"bytecode":{"linkReferences":{},"object":"6080604052348015600f57600080fd5b50336000806101000a81548173ffffffffffffffffffffffffffffffffffffffff021916908373ffffffffffffffffffffffffffffffffffffffff1602179055506115858061005f6000396000f3fe6080604052600436106100705760003560e01c806381ab84711161004e57806381ab8471146100f95780638da5cb5b14610122578063a25db8ce1461014d578063f340fa011461018a57610070565b80633ccfd60b14610075578063722713f71461008c5780637285fd3a146100b7575b600080fd5b34801561008157600080fd5b5061008a6101a6565b005b34801561009857600080fd5b506100a161041d565b6040516100ae9190610a75565b60405180910390f35b3480156100c357600080fd5b506100de60048036038101906100d99190610ad0565b610425565b6040516100f096959493929190610be9565b60405180910390f35b34801561010557600080fd5b50610120600480360381019061011b9190610db9565b6105ae565b005b34801561012e57600080fd5b5061013761075d565b6040516101449190610e79565b60405180910390f35b34801561015957600080fd5b50610174600480360381019061016f9190610ec0565b610781565b6040516101819190610eed565b60405180910390f35b6101a4600480360381019061019f9190610ec0565b610882565b005b60006101b1336109ad565b90506103e781036101f7576040517f08c379a00000000000000000000000000000000000000000000000000000000081526004016101ee90610f54565b60405180910390fd5b6001818154811061020b5761020a610f74565b5b906000526020600020906006020160050160009054906101000a900460ff16610269576040517f08c379a000000000000000000000000000000000000000000000000000000000815260040161026090610fef565b60405180910390fd5b60006001828154811061027f5761027e610f74565b5b9060005260206000209060060201600401549050600081116102d6576040517f08c379a00000000000000000000000000000000000000000000000000000000081526004016102cd9061105b565b60405180910390fd5b6000600183815481106102ec576102eb610f74565b5b90600052602060002090600602016004018190555060006001838154811061031757610316610f74565b5b906000526020600020906006020160050160006101000a81548160ff0219169083151502179055506001828154811061035357610352610f74565b5b906000526020600020906006020160000160009054906101000a900473ffffffffffffffffffffffffffffffffffffffff1673ffffffffffffffffffffffffffffffffffffffff166108fc829081150290604051600060405180830381858888f193505050501580156103ca573d6000803e3d6000fd5b503373ffffffffffffffffffffffffffffffffffffffff167f9c6fac0664663793e0185da2dac18b87679232115ae735056d7876e9df5e71a6826040516104119190610a75565b60405180910390a25050565b600047905090565b6001818154811061043557600080fd5b90600052602060002090600602016000915090508060000160009054906101000a900473ffffffffffffffffffffffffffffffffffffffff169080600101805461047e906110aa565b80601f01602080910402602001604051908101604052809291908181526020018280546104aa906110aa565b80156104f75780601f106104cc576101008083540402835291602001916104f7565b820191906000526020600020905b8154815290600101906020018083116104da57829003601f168201915b50505050509080600201805461050c906110aa565b80601f0160208091040260200160405190810160405280929190818152602001828054610538906110aa565b80156105855780601f1061055a57610100808354040283529160200191610585565b820191906000526020600020905b81548152906001019060200180831161056857829003601f168201915b5050505050908060030154908060040154908060050160009054906101000a900460ff16905086565b60008054906101000a900473ffffffffffffffffffffffffffffffffffffffff1673ffffffffffffffffffffffffffffffffffffffff163373ffffffffffffffffffffffffffffffffffffffff161461063c576040517f08c379a00000000000000000000000000000000000000000000000000000000081526004016106339061114d565b60405180910390fd5b60016040518060c001604052808673ffffffffffffffffffffffffffffffffffffffff1681526020018581526020018481526020018381526020016000815260200160001515815250908060018154018082558091505060019003906000526020600020906006020160009091909190915060008201518160000160006101000a81548173ffffffffffffffffffffffffffffffffffffffff021916908373ffffffffffffffffffffffffffffffffffffffff160217905550602082015181600101908161070a9190611319565b5060408201518160020190816107209190611319565b50606082015181600301556080820151816004015560a08201518160050160006101000a81548160ff021916908315150217905550505050505050565b60008054906101000a900473ffffffffffffffffffffffffffffffffffffffff1681565b60008061078d836109ad565b90506103e781036107d3576040517f08c379a00000000000000000000000000000000000000000000000000000000081526004016107ca90610f54565b60405180910390fd5b600181815481106107e7576107e6610f74565b5b90600052602060002090600602016003015442101561083b576040517f08c379a000000000000000000000000000000000000000000000000000000000815260040161083290611437565b60405180910390fd5b60018082815481106108505761084f610f74565b5b906000526020600020906006020160050160006101000a81548160ff0219169083151502179055506001915050919050565b600034116108c5576040517f08c379a00000000000000000000000000000000000000000000000000000000081526004016108bc906114a3565b60405180910390fd5b60006108d0826109ad565b90506103e78103610916576040517f08c379a000000000000000000000000000000000000000000000000000000000815260040161090d90610f54565b60405180910390fd5b346001828154811061092b5761092a610f74565b5b9060005260206000209060060201600401600082825461094b91906114f2565b925050819055508173ffffffffffffffffffffffffffffffffffffffff167fdfa390b0c1c515579c441209b0f88953b3383e444305380136073b84d9ae5eaf3461099361041d565b6040516109a1929190611526565b60405180910390a25050565b600080600090505b600180549050811015610a50578273ffffffffffffffffffffffffffffffffffffffff16600182815481106109ed576109ec610f74565b5b906000526020600020906006020160000160009054906101000a900473ffffffffffffffffffffffffffffffffffffffff1673ffffffffffffffffffffffffffffffffffffffff1603610a435780915050610a57565b80806001019150506109b5565b506103e790505b919050565b6000819050919050565b610a6f81610a5c565b82525050565b6000602082019050610a8a6000830184610a66565b92915050565b6000604051905090565b600080fd5b600080fd5b610aad81610a5c565b8114610ab857600080fd5b50565b600081359050610aca81610aa4565b92915050565b600060208284031215610ae657610ae5610a9a565b5b6000610af484828501610abb565b91505092915050565b600073ffffffffffffffffffffffffffffffffffffffff82169050919050565b6000610b2882610afd565b9050919050565b610b3881610b1d565b82525050565b600081519050919050565b600082825260208201905092915050565b60005b83811015610b78578082015181840152602081019050610b5d565b60008484015250505050565b6000601f19601f8301169050919050565b6000610ba082610b3e565b610baa8185610b49565b9350610bba818560208601610b5a565b610bc381610b84565b840191505092915050565b60008115159050919050565b610be381610bce565b82525050565b600060c082019050610bfe6000830189610b2f565b8181036020830152610c108188610b95565b90508181036040830152610c248187610b95565b9050610c336060830186610a66565b610c406080830185610a66565b610c4d60a0830184610bda565b979650505050505050565b610c6181610b1d565b8114610c6c57600080fd5b50565b600081359050610c7e81610c58565b92915050565b600080fd5b600080fd5b7f4e487b7100000000000000000000000000000000000000000000000000000000600052604160045260246000fd5b610cc682610b84565b810181811067ffffffffffffffff82111715610ce557610ce4610c8e565b5b80604052505050565b6000610cf8610a90565b9050610d048282610cbd565b919050565b600067ffffffffffffffff821115610d2457610d23610c8e565b5b610d2d82610b84565b9050602081019050919050565b82818337600083830152505050565b6000610d5c610d5784610d09565b610cee565b905082815260208101848484011115610d7857610d77610c89565b5b610d83848285610d3a565b509392505050565b600082601f830112610da057610d9f610c84565b5b8135610db0848260208601610d49565b91505092915050565b60008060008060808587031215610dd357610dd2610a9a565b5b6000610de187828801610c6f565b945050602085013567ffffffffffffffff811115610e0257610e01610a9f565b5b610e0e87828801610d8b565b935050604085013567ffffffffffffffff811115610e2f57610e2e610a9f565b5b610e3b87828801610d8b565b9250506060610e4c87828801610abb565b91505092959194509250565b6000610e6382610afd565b9050919050565b610e7381610e58565b82525050565b6000602082019050610e8e6000830184610e6a565b92915050565b610e9d81610e58565b8114610ea857600080fd5b50565b600081359050610eba81610e94565b92915050565b600060208284031215610ed657610ed5610a9a565b5b6000610ee484828501610eab565b91505092915050565b6000602082019050610f026000830184610bda565b92915050565b7f4b6964206e6f7420666f756e6400000000000000000000000000000000000000600082015250565b6000610f3e600d83610b49565b9150610f4982610f08565b602082019050919050565b60006020820190508181036000830152610f6d81610f31565b9050919050565b7f4e487b7100000000000000000000000000000000000000000000000000000000600052603260045260246000fd5b7f5769746864726177616c206e6f7420616c6c6f77656400000000000000000000600082015250565b6000610fd9601683610b49565b9150610fe482610fa3565b602082019050919050565b6000602082019050818103600083015261100881610fcc565b9050919050565b7f4e6f2066756e647320617661696c61626c650000000000000000000000000000600082015250565b6000611045601283610b49565b91506110508261100f565b602082019050919050565b6000602082019050818103600083015261107481611038565b9050919050565b7f4e487b7100000000000000000000000000000000000000000000000000000000600052602260045260246000fd5b600060028204905060018216806110c257607f821691505b6020821081036110d5576110d461107b565b5b50919050565b7f4f6e6c7920746865206f776e65722063616e20706572666f726d20746869732060008201527f616374696f6e0000000000000000000000000000000000000000000000000000602082015250565b6000611137602683610b49565b9150611142826110db565b604082019050919050565b600060208201905081810360008301526111668161112a565b9050919050565b60008190508160005260206000209050919050565b60006020601f8301049050919050565b600082821b905092915050565b6000600883026111cf7fffffffffffffffffffffffffffffffffffffffffffffffffffffffffffffffff82611192565b6111d98683611192565b95508019841693508086168417925050509392505050565b6000819050919050565b600061121661121161120c84610a5c565b6111f1565b610a5c565b9050919050565b6000819050919050565b611230836111fb565b61124461123c8261121d565b84845461119f565b825550505050565b600090565b61125961124c565b611264818484611227565b505050565b5b818110156112885761127d600082611251565b60018101905061126a565b5050565b601f8211156112cd5761129e8161116d565b6112a784611182565b810160208510156112b6578190505b6112ca6112c285611182565b830182611269565b50505b505050565b600082821c905092915050565b60006112f0600019846008026112d2565b1980831691505092915050565b600061130983836112df565b9150826002028217905092915050565b61132282610b3e565b67ffffffffffffffff81111561133b5761133a610c8e565b5b61134582546110aa565b61135082828561128c565b600060209050601f8311600181146113835760008415611371578287015190505b61137b85826112fd565b8655506113e3565b601f1984166113918661116d565b60005b828110156113b957848901518255600182019150602085019450602081019050611394565b868310156113d657848901516113d2601f8916826112df565b8355505b6001600288020188555050505b505050505050565b7f43616e6e6f742077697468647261772079657400000000000000000000000000600082015250565b6000611421601383610b49565b915061142c826113eb565b602082019050919050565b6000602082019050818103600083015261145081611414565b9050919050565b7f4d7573742073656e6420736f6d65204554480000000000000000000000000000600082015250565b600061148d601283610b49565b915061149882611457565b602082019050919050565b600060208201905081810360008301526114bc81611480565b9050919050565b7f4e487b7100000000000000000000000000000000000000000000000000000000600052601160045260246000fd5b60006114fd82610a5c565b915061150883610a5c565b92508282019050808211156115205761151f6114c3565b5b92915050565b600060408201905061153b6000830185610a66565b6115486020830184610a66565b939250505056fea2646970667358221220f12752158a28ebb6a32d860ca85fef5c051ae6751f34354325ef5fa8c7bb787664736f6c634300081c0033","opcodes":"PUSH1 0x80 PUSH1 0x40 MSTORE CALLVALUE DUP1 ISZERO PUSH1 0xF JUMPI PUSH1 0x0 DUP1 REVERT JUMPDEST POP CALLER PUSH1 0x0 DUP1 PUSH2 0x100 EXP DUP2 SLOAD DUP2 PUSH20 0xFFFFFFFFFFFFFFFFFFFFFFFFFFFFFFFFFFFFFFFF MUL NOT AND SWAP1 DUP4 PUSH20 0xFFFFFFFFFFFFFFFFFFFFFFFFFFFFFFFFFFFFFFFF AND MUL OR SWAP1 SSTORE POP PUSH2 0x1585 DUP1 PUSH2 0x5F PUSH1 0x0 CODECOPY PUSH1 0x0 RETURN INVALID PUSH1 0x80 PUSH1 0x40 MSTORE PUSH1 0x4 CALLDATASIZE LT PUSH2 0x70 JUMPI PUSH1 0x0 CALLDATALOAD PUSH1 0xE0 SHR DUP1 PUSH4 0x81AB8471 GT PUSH2 0x4E JUMPI DUP1 PUSH4 0x81AB8471 EQ PUSH2 0xF9 JUMPI DUP1 PUSH4 0x8DA5CB5B EQ PUSH2 0x122 JUMPI DUP1 PUSH4 0xA25DB8CE EQ PUSH2 0x14D JUMPI DUP1 PUSH4 0xF340FA01 EQ PUSH2 0x18A JUMPI PUSH2 0x70 JUMP JUMPDEST DUP1 PUSH4 0x3CCFD60B EQ PUSH2 0x75 JUMPI DUP1 PUSH4 0x722713F7 EQ PUSH2 0x8C JUMPI DUP1 PUSH4 0x7285FD3A EQ PUSH2 0xB7 JUMPI JUMPDEST PUSH1 0x0 DUP1 REVERT JUMPDEST CALLVALUE DUP1 ISZERO PUSH2 0x81 JUMPI PUSH1 0x0 DUP1 REVERT JUMPDEST POP PUSH2 0x8A PUSH2 0x1A6 JUMP JUMPDEST STOP JUMPDEST CALLVALUE DUP1 ISZERO PUSH2 0x98 JUMPI PUSH1 0x0 DUP1 REVERT JUMPDEST POP PUSH2 0xA1 PUSH2 0x41D JUMP JUMPDEST PUSH1 0x40 MLOAD PUSH2 0xAE SWAP2 SWAP1 PUSH2 0xA75 JUMP JUMPDEST PUSH1 0x40 MLOAD DUP1 SWAP2 SUB SWAP1 RETURN JUMPDEST CALLVALUE DUP1 ISZERO PUSH2 0xC3 JUMPI PUSH1 0x0 DUP1 REVERT JUMPDEST POP PUSH2 0xDE PUSH1 0x4 DUP1 CALLDATASIZE SUB DUP2 ADD SWAP1 PUSH2 0xD9 SWAP2 SWAP1 PUSH2 0xAD0 JUMP JUMPDEST PUSH2 0x425 JUMP JUMPDEST PUSH1 0x40 MLOAD PUSH2 0xF0 SWAP7 SWAP6 SWAP5 SWAP4 SWAP3 SWAP2 SWAP1 PUSH2 0xBE9 JUMP JUMPDEST PUSH1 0x40 MLOAD DUP1 SWAP2 SUB SWAP1 RETURN JUMPDEST CALLVALUE DUP1 ISZERO PUSH2 0x105 JUMPI PUSH1 0x0 DUP1 REVERT JUMPDEST POP PUSH2 0x120 PUSH1 0x4 DUP1 CALLDATASIZE SUB DUP2 ADD SWAP1 PUSH2 0x11B SWAP2 SWAP1 PUSH2 0xDB9 JUMP JUMPDEST PUSH2 0x5AE JUMP JUMPDEST STOP JUMPDEST CALLVALUE DUP1 ISZERO PUSH2 0x12E JUMPI PUSH1 0x0 DUP1 REVERT JUMPDEST POP PUSH2 0x137 PUSH2 0x75D JUMP JUMPDEST PUSH1 0x40 MLOAD PUSH2 0x144 SWAP2 SWAP1 PUSH2 0xE79 JUMP JUMPDEST PUSH1 0x40 MLOAD DUP1 SWAP2 SUB SWAP1 RETURN JUMPDEST CALLVALUE DUP1 ISZERO PUSH2 0x159 JUMPI PUSH1 0x0 DUP1 REVERT JUMPDEST POP PUSH2 0x174 PUSH1 0x4 DUP1 CALLDATASIZE SUB DUP2 ADD SWAP1 PUSH2 0x16F SWAP2 SWAP1 PUSH2 0xEC0 JUMP JUMPDEST PUSH2 0x781 JUMP JUMPDEST PUSH1 0x40 MLOAD PUSH2 0x181 SWAP2 SWAP1 PUSH2 0xEED JUMP JUMPDEST PUSH1 0x40 MLOAD DUP1 SWAP2 SUB SWAP1 RETURN JUMPDEST PUSH2 0x1A4 PUSH1 0x4 DUP1 CALLDATASIZE SUB DUP2 ADD SWAP1 PUSH2 0x19F SWAP2 SWAP1 PUSH2 0xEC0 JUMP JUMPDEST PUSH2 0x882 JUMP JUMPDEST STOP JUMPDEST PUSH1 0x0 PUSH2 0x1B1 CALLER PUSH2 0x9AD JUMP JUMPDEST SWAP1 POP PUSH2 0x3E7 DUP2 SUB PUSH2 0x1F7 JUMPI PUSH1 0x40 MLOAD PUSH32 0x8C379A000000000000000000000000000000000000000000000000000000000 DUP2 MSTORE PUSH1 0x4 ADD PUSH2 0x1EE SWAP1 PUSH2 0xF54 JUMP JUMPDEST PUSH1 0x40 MLOAD DUP1 SWAP2 SUB SWAP1 REVERT JUMPDEST PUSH1 0x1 DUP2 DUP2 SLOAD DUP2 LT PUSH2 0x20B JUMPI PUSH2 0x20A PUSH2 0xF74 JUMP JUMPDEST JUMPDEST SWAP1 PUSH1 0x0 MSTORE PUSH1 0x20 PUSH1 0x0 KECCAK256 SWAP1 PUSH1 0x6 MUL ADD PUSH1 0x5 ADD PUSH1 0x0 SWAP1 SLOAD SWAP1 PUSH2 0x100 EXP SWAP1 DIV PUSH1 0xFF AND PUSH2 0x269 JUMPI PUSH1 0x40 MLOAD PUSH32 0x8C379A000000000000000000000000000000000000000000000000000000000 DUP2 MSTORE PUSH1 0x4 ADD PUSH2 0x260 SWAP1 PUSH2 0xFEF JUMP JUMPDEST PUSH1 0x40 MLOAD DUP1 SWAP2 SUB SWAP1 REVERT JUMPDEST PUSH1 0x0 PUSH1 0x1 DUP3 DUP2 SLOAD DUP2 LT PUSH2 0x27F JUMPI PUSH2 0x27E PUSH2 0xF74 JUMP JUMPDEST JUMPDEST SWAP1 PUSH1 0x0 MSTORE PUSH1 0x20 PUSH1 0x0 KECCAK256 SWAP1 PUSH1 0x6 MUL ADD PUSH1 0x4 ADD SLOAD SWAP1 POP PUSH1 0x0 DUP2 GT PUSH2 0x2D6 JUMPI PUSH1 0x40 MLOAD PUSH32 0x8C379A000000000000000000000000000000000000000000000000000000000 DUP2 MSTORE PUSH1 0x4 ADD PUSH2 0x2CD SWAP1 PUSH2 0x105B JUMP JUMPDEST PUSH1 0x40 MLOAD DUP1 SWAP2 SUB SWAP1 REVERT JUMPDEST PUSH1 0x0 PUSH1 0x1 DUP4 DUP2 SLOAD DUP2 LT PUSH2 0x2EC JUMPI PUSH2 0x2EB PUSH2 0xF74 JUMP JUMPDEST JUMPDEST SWAP1 PUSH1 0x0 MSTORE PUSH1 0x20 PUSH1 0x0 KECCAK256 SWAP1 PUSH1 0x6 MUL ADD PUSH1 0x4 ADD DUP2 SWAP1 SSTORE POP PUSH1 0x0 PUSH1 0x1 DUP4 DUP2 SLOAD DUP2 LT PUSH2 0x317 JUMPI PUSH2 0x316 PUSH2 0xF74 JUMP JUMPDEST JUMPDEST SWAP1 PUSH1 0x0 MSTORE PUSH1 0x20 PUSH1 0x0 KECCAK256 SWAP1 PUSH1 0x6 MUL ADD PUSH1 0x5 ADD PUSH1 0x0 PUSH2 0x100 EXP DUP2 SLOAD DUP2 PUSH1 0xFF MUL NOT AND SWAP1 DUP4 ISZERO ISZERO MUL OR SWAP1 SSTORE POP PUSH1 0x1 DUP3 DUP2 SLOAD DUP2 LT PUSH2 0x353 JUMPI PUSH2 0x352 PUSH2 0xF74 JUMP JUMPDEST JUMPDEST SWAP1 PUSH1 0x0 MSTORE PUSH1 0x20 PUSH1 0x0 KECCAK256 SWAP1 PUSH1 0x6 MUL ADD PUSH1 0x0 ADD PUSH1 0x0 SWAP1 SLOAD SWAP1 PUSH2 0x100 EXP SWAP1 DIV PUSH20 0xFFFFFFFFFFFFFFFFFFFFFFFFFFFFFFFFFFFFFFFF AND PUSH20 0xFFFFFFFFFFFFFFFFFFFFFFFFFFFFFFFFFFFFFFFF AND PUSH2 0x8FC DUP3 SWAP1 DUP2 ISZERO MUL SWAP1 PUSH1 0x40 MLOAD PUSH1 0x0 PUSH1 0x40 MLOAD DUP1 DUP4 SUB DUP2 DUP6 DUP9 DUP9 CALL SWAP4 POP POP POP POP ISZERO DUP1 ISZERO PUSH2 0x3CA JUMPI RETURNDATASIZE PUSH1 0x0 DUP1 RETURNDATACOPY RETURNDATASIZE PUSH1 0x0 REVERT JUMPDEST POP CALLER PUSH20 0xFFFFFFFFFFFFFFFFFFFFFFFFFFFFFFFFFFFFFFFF AND PUSH32 0x9C6FAC0664663793E0185DA2DAC18B87679232115AE735056D7876E9DF5E71A6 DUP3 PUSH1 0x40 MLOAD PUSH2 0x411 SWAP2 SWAP1 PUSH2 0xA75 JUMP JUMPDEST PUSH1 0x40 MLOAD DUP1 SWAP2 SUB SWAP1 LOG2 POP POP JUMP JUMPDEST PUSH1 0x0 SELFBALANCE SWAP1 POP SWAP1 JUMP JUMPDEST PUSH1 0x1 DUP2 DUP2 SLOAD DUP2 LT PUSH2 0x435 JUMPI PUSH1 0x0 DUP1 REVERT JUMPDEST SWAP1 PUSH1 0x0 MSTORE PUSH1 0x20 PUSH1 0x0 KECCAK256 SWAP1 PUSH1 0x6 MUL ADD PUSH1 0x0 SWAP2 POP SWAP1 POP DUP1 PUSH1 0x0 ADD PUSH1 0x0 SWAP1 SLOAD SWAP1 PUSH2 0x100 EXP SWAP1 DIV PUSH20 0xFFFFFFFFFFFFFFFFFFFFFFFFFFFFFFFFFFFFFFFF AND SWAP1 DUP1 PUSH1 0x1 ADD DUP1 SLOAD PUSH2 0x47E SWAP1 PUSH2 0x10AA JUMP JUMPDEST DUP1 PUSH1 0x1F ADD PUSH1 0x20 DUP1 SWAP2 DIV MUL PUSH1 0x20 ADD PUSH1 0x40 MLOAD SWAP1 DUP2 ADD PUSH1 0x40 MSTORE DUP1 SWAP3 SWAP2 SWAP1 DUP2 DUP2 MSTORE PUSH1 0x20 ADD DUP3 DUP1 SLOAD PUSH2 0x4AA SWAP1 PUSH2 0x10AA JUMP JUMPDEST DUP1 ISZERO PUSH2 0x4F7 JUMPI DUP1 PUSH1 0x1F LT PUSH2 0x4CC JUMPI PUSH2 0x100 DUP1 DUP4 SLOAD DIV MUL DUP4 MSTORE SWAP2 PUSH1 0x20 ADD SWAP2 PUSH2 0x4F7 JUMP JUMPDEST DUP3 ADD SWAP2 SWAP1 PUSH1 0x0 MSTORE PUSH1 0x20 PUSH1 0x0 KECCAK256 SWAP1 JUMPDEST DUP2 SLOAD DUP2 MSTORE SWAP1 PUSH1 0x1 ADD SWAP1 PUSH1 0x20 ADD DUP1 DUP4 GT PUSH2 0x4DA JUMPI DUP3 SWAP1 SUB PUSH1 0x1F AND DUP3 ADD SWAP2 JUMPDEST POP POP POP POP POP SWAP1 DUP1 PUSH1 0x2 ADD DUP1 SLOAD PUSH2 0x50C SWAP1 PUSH2 0x10AA JUMP JUMPDEST DUP1 PUSH1 0x1F ADD PUSH1 0x20 DUP1 SWAP2 DIV MUL PUSH1 0x20 ADD PUSH1 0x40 MLOAD SWAP1 DUP2 ADD PUSH1 0x40 MSTORE DUP1 SWAP3 SWAP2 SWAP1 DUP2 DUP2 MSTORE PUSH1 0x20 ADD DUP3 DUP1 SLOAD PUSH2 0x538 SWAP1 PUSH2 0x10AA JUMP JUMPDEST DUP1 ISZERO PUSH2 0x585 JUMPI DUP1 PUSH1 0x1F LT PUSH2 0x55A JUMPI PUSH2 0x100 DUP1 DUP4 SLOAD DIV MUL DUP4 MSTORE SWAP2 PUSH1 0x20 ADD SWAP2 PUSH2 0x585 JUMP JUMPDEST DUP3 ADD SWAP2 SWAP1 PUSH1 0x0 MSTORE PUSH1 0x20 PUSH1 0x0 KECCAK256 SWAP1 JUMPDEST DUP2 SLOAD DUP2 MSTORE SWAP1 PUSH1 0x1 ADD SWAP1 PUSH1 0x20 ADD DUP1 DUP4 GT PUSH2 0x568 JUMPI DUP3 SWAP1 SUB PUSH1 0x1F AND DUP3 ADD SWAP2 JUMPDEST POP POP POP POP POP SWAP1 DUP1 PUSH1 0x3 ADD SLOAD SWAP1 DUP1 PUSH1 0x4 ADD SLOAD SWAP1 DUP1 PUSH1 0x5 ADD PUSH1 0x0 SWAP1 SLOAD SWAP1 PUSH2 0x100 EXP SWAP1 DIV PUSH1 0xFF AND SWAP1 POP DUP7 JUMP JUMPDEST PUSH1 0x0 DUP1 SLOAD SWAP1 PUSH2 0x100 EXP SWAP1 DIV PUSH20 0xFFFFFFFFFFFFFFFFFFFFFFFFFFFFFFFFFFFFFFFF AND PUSH20 0xFFFFFFFFFFFFFFFFFFFFFFFFFFFFFFFFFFFFFFFF AND CALLER PUSH20 0xFFFFFFFFFFFFFFFFFFFFFFFFFFFFFFFFFFFFFFFF AND EQ PUSH2 0x63C JUMPI PUSH1 0x40 MLOAD PUSH32 0x8C379A000000000000000000000000000000000000000000000000000000000 DUP2 MSTORE PUSH1 0x4 ADD PUSH2 0x633 SWAP1 PUSH2 0x114D JUMP JUMPDEST PUSH1 0x40 MLOAD DUP1 SWAP2 SUB SWAP1 REVERT JUMPDEST PUSH1 0x1 PUSH1 0x40 MLOAD DUP1 PUSH1 0xC0 ADD PUSH1 0x40 MSTORE DUP1 DUP7 PUSH20 0xFFFFFFFFFFFFFFFFFFFFFFFFFFFFFFFFFFFFFFFF AND DUP2 MSTORE PUSH1 0x20 ADD DUP6 DUP2 MSTORE PUSH1 0x20 ADD DUP5 DUP2 MSTORE PUSH1 0x20 ADD DUP4 DUP2 MSTORE PUSH1 0x20 ADD PUSH1 0x0 DUP2 MSTORE PUSH1 0x20 ADD PUSH1 0x0 ISZERO ISZERO DUP2 MSTORE POP SWAP1 DUP1 PUSH1 0x1 DUP2 SLOAD ADD DUP1 DUP3 SSTORE DUP1 SWAP2 POP POP PUSH1 0x1 SWAP1 SUB SWAP1 PUSH1 0x0 MSTORE PUSH1 0x20 PUSH1 0x0 KECCAK256 SWAP1 PUSH1 0x6 MUL ADD PUSH1 0x0 SWAP1 SWAP2 SWAP1 SWAP2 SWAP1 SWAP2 POP PUSH1 0x0 DUP3 ADD MLOAD DUP2 PUSH1 0x0 ADD PUSH1 0x0 PUSH2 0x100 EXP DUP2 SLOAD DUP2 PUSH20 0xFFFFFFFFFFFFFFFFFFFFFFFFFFFFFFFFFFFFFFFF MUL NOT AND SWAP1 DUP4 PUSH20 0xFFFFFFFFFFFFFFFFFFFFFFFFFFFFFFFFFFFFFFFF AND MUL OR SWAP1 SSTORE POP PUSH1 0x20 DUP3 ADD MLOAD DUP2 PUSH1 0x1 ADD SWAP1 DUP2 PUSH2 0x70A SWAP2 SWAP1 PUSH2 0x1319 JUMP JUMPDEST POP PUSH1 0x40 DUP3 ADD MLOAD DUP2 PUSH1 0x2 ADD SWAP1 DUP2 PUSH2 0x720 SWAP2 SWAP1 PUSH2 0x1319 JUMP JUMPDEST POP PUSH1 0x60 DUP3 ADD MLOAD DUP2 PUSH1 0x3 ADD SSTORE PUSH1 0x80 DUP3 ADD MLOAD DUP2 PUSH1 0x4 ADD SSTORE PUSH1 0xA0 DUP3 ADD MLOAD DUP2 PUSH1 0x5 ADD PUSH1 0x0 PUSH2 0x100 EXP DUP2 SLOAD DUP2 PUSH1 0xFF MUL NOT AND SWAP1 DUP4 ISZERO ISZERO MUL OR SWAP1 SSTORE POP POP POP POP POP POP POP JUMP JUMPDEST PUSH1 0x0 DUP1 SLOAD SWAP1 PUSH2 0x100 EXP SWAP1 DIV PUSH20 0xFFFFFFFFFFFFFFFFFFFFFFFFFFFFFFFFFFFFFFFF AND DUP2 JUMP JUMPDEST PUSH1 0x0 DUP1 PUSH2 0x78D DUP4 PUSH2 0x9AD JUMP JUMPDEST SWAP1 POP PUSH2 0x3E7 DUP2 SUB PUSH2 0x7D3 JUMPI PUSH1 0x40 MLOAD PUSH32 0x8C379A000000000000000000000000000000000000000000000000000000000 DUP2 MSTORE PUSH1 0x4 ADD PUSH2 0x7CA SWAP1 PUSH2 0xF54 JUMP JUMPDEST PUSH1 0x40 MLOAD DUP1 SWAP2 SUB SWAP1 REVERT JUMPDEST PUSH1 0x1 DUP2 DUP2 SLOAD DUP2 LT PUSH2 0x7E7 JUMPI PUSH2 0x7E6 PUSH2 0xF74 JUMP JUMPDEST JUMPDEST SWAP1 PUSH1 0x0 MSTORE PUSH1 0x20 PUSH1 0x0 KECCAK256 SWAP1 PUSH1 0x6 MUL ADD PUSH1 0x3 ADD SLOAD TIMESTAMP LT ISZERO PUSH2 0x83B JUMPI PUSH1 0x40 MLOAD PUSH32 0x8C379A000000000000000000000000000000000000000000000000000000000 DUP2 MSTORE PUSH1 0x4 ADD PUSH2 0x832 SWAP1 PUSH2 0x1437 JUMP JUMPDEST PUSH1 0x40 MLOAD DUP1 SWAP2 SUB SWAP1 REVERT JUMPDEST PUSH1 0x1 DUP1 DUP3 DUP2 SLOAD DUP2 LT PUSH2 0x850 JUMPI PUSH2 0x84F PUSH2 0xF74 JUMP JUMPDEST JUMPDEST SWAP1 PUSH1 0x0 MSTORE PUSH1 0x20 PUSH1 0x0 KECCAK256 SWAP1 PUSH1 0x6 MUL ADD PUSH1 0x5 ADD PUSH1 0x0 PUSH2 0x100 EXP DUP2 SLOAD DUP2 PUSH1 0xFF MUL NOT AND SWAP1 DUP4 ISZERO ISZERO MUL OR SWAP1 SSTORE POP PUSH1 0x1 SWAP2 POP POP SWAP2 SWAP1 POP JUMP JUMPDEST PUSH1 0x0 CALLVALUE GT PUSH2 0x8C5 JUMPI PUSH1 0x40 MLOAD PUSH32 0x8C379A000000000000000000000000000000000000000000000000000000000 DUP2 MSTORE PUSH1 0x4 ADD PUSH2 0x8BC SWAP1 PUSH2 0x14A3 JUMP JUMPDEST PUSH1 0x40 MLOAD DUP1 SWAP2 SUB SWAP1 REVERT JUMPDEST PUSH1 0x0 PUSH2 0x8D0 DUP3 PUSH2 0x9AD JUMP JUMPDEST SWAP1 POP PUSH2 0x3E7 DUP2 SUB PUSH2 0x916 JUMPI PUSH1 0x40 MLOAD PUSH32 0x8C379A000000000000000000000000000000000000000000000000000000000 DUP2 MSTORE PUSH1 0x4 ADD PUSH2 0x90D SWAP1 PUSH2 0xF54 JUMP JUMPDEST PUSH1 0x40 MLOAD DUP1 SWAP2 SUB SWAP1 REVERT JUMPDEST CALLVALUE PUSH1 0x1 DUP3 DUP2 SLOAD DUP2 LT PUSH2 0x92B JUMPI PUSH2 0x92A PUSH2 0xF74 JUMP JUMPDEST JUMPDEST SWAP1 PUSH1 0x0 MSTORE PUSH1 0x20 PUSH1 0x0 KECCAK256 SWAP1 PUSH1 0x6 MUL ADD PUSH1 0x4 ADD PUSH1 0x0 DUP3 DUP3 SLOAD PUSH2 0x94B SWAP2 SWAP1 PUSH2 0x14F2 JUMP JUMPDEST SWAP3 POP POP DUP2 SWAP1 SSTORE POP DUP2 PUSH20 0xFFFFFFFFFFFFFFFFFFFFFFFFFFFFFFFFFFFFFFFF AND PUSH32 0xDFA390B0C1C515579C441209B0F88953B3383E444305380136073B84D9AE5EAF CALLVALUE PUSH2 0x993 PUSH2 0x41D JUMP JUMPDEST PUSH1 0x40 MLOAD PUSH2 0x9A1 SWAP3 SWAP2 SWAP1 PUSH2 0x1526 JUMP JUMPDEST PUSH1 0x40 MLOAD DUP1 SWAP2 SUB SWAP1 LOG2 POP POP JUMP JUMPDEST PUSH1 0x0 DUP1 PUSH1 0x0 SWAP1 POP JUMPDEST PUSH1 0x1 DUP1 SLOAD SWAP1 POP DUP2 LT ISZERO PUSH2 0xA50 JUMPI DUP3 PUSH20 0xFFFFFFFFFFFFFFFFFFFFFFFFFFFFFFFFFFFFFFFF AND PUSH1 0x1 DUP3 DUP2 SLOAD DUP2 LT PUSH2 0x9ED JUMPI PUSH2 0x9EC PUSH2 0xF74 JUMP JUMPDEST JUMPDEST SWAP1 PUSH1 0x0 MSTORE PUSH1 0x20 PUSH1 0x0 KECCAK256 SWAP1 PUSH1 0x6 MUL ADD PUSH1 0x0 ADD PUSH1 0x0 SWAP1 SLOAD SWAP1 PUSH2 0x100 EXP SWAP1 DIV PUSH20 0xFFFFFFFFFFFFFFFFFFFFFFFFFFFFFFFFFFFFFFFF AND PUSH20 0xFFFFFFFFFFFFFFFFFFFFFFFFFFFFFFFFFFFFFFFF AND SUB PUSH2 0xA43 JUMPI DUP1 SWAP2 POP POP PUSH2 0xA57 JUMP JUMPDEST DUP1 DUP1 PUSH1 0x1 ADD SWAP2 POP POP PUSH2 0x9B5 JUMP JUMPDEST POP PUSH2 0x3E7 SWAP1 POP JUMPDEST SWAP2 SWAP1 POP JUMP JUMPDEST PUSH1 0x0 DUP2 SWAP1 POP SWAP2 SWAP1 POP JUMP JUMPDEST PUSH2 0xA6F DUP2 PUSH2 0xA5C JUMP JUMPDEST DUP3 MSTORE POP POP JUMP JUMPDEST PUSH1 0x0 PUSH1 0x20 DUP3 ADD SWAP1 POP PUSH2 0xA8A PUSH1 0x0 DUP4 ADD DUP5 PUSH2 0xA66 JUMP JUMPDEST SWAP3 SWAP2 POP POP JUMP JUMPDEST PUSH1 0x0 PUSH1 0x40 MLOAD SWAP1 POP SWAP1 JUMP JUMPDEST PUSH1 0x0 DUP1 REVERT JUMPDEST PUSH1 0x0 DUP1 REVERT JUMPDEST PUSH2 0xAAD DUP2 PUSH2 0xA5C JUMP JUMPDEST DUP2 EQ PUSH2 0xAB8 JUMPI PUSH1 0x0 DUP1 REVERT JUMPDEST POP JUMP JUMPDEST PUSH1 0x0 DUP2 CALLDATALOAD SWAP1 POP PUSH2 0xACA DUP2 PUSH2 0xAA4 JUMP JUMPDEST SWAP3 SWAP2 POP POP JUMP JUMPDEST PUSH1 0x0 PUSH1 0x20 DUP3 DUP5 SUB SLT ISZERO PUSH2 0xAE6 JUMPI PUSH2 0xAE5 PUSH2 0xA9A JUMP JUMPDEST JUMPDEST PUSH1 0x0 PUSH2 0xAF4 DUP5 DUP3 DUP6 ADD PUSH2 0xABB JUMP JUMPDEST SWAP2 POP POP SWAP3 SWAP2 POP POP JUMP JUMPDEST PUSH1 0x0 PUSH20 0xFFFFFFFFFFFFFFFFFFFFFFFFFFFFFFFFFFFFFFFF DUP3 AND SWAP1 POP SWAP2 SWAP1 POP JUMP JUMPDEST PUSH1 0x0 PUSH2 0xB28 DUP3 PUSH2 0xAFD JUMP JUMPDEST SWAP1 POP SWAP2 SWAP1 POP JUMP JUMPDEST PUSH2 0xB38 DUP2 PUSH2 0xB1D JUMP JUMPDEST DUP3 MSTORE POP POP JUMP JUMPDEST PUSH1 0x0 DUP2 MLOAD SWAP1 POP SWAP2 SWAP1 POP JUMP JUMPDEST PUSH1 0x0 DUP3 DUP3 MSTORE PUSH1 0x20 DUP3 ADD SWAP1 POP SWAP3 SWAP2 POP POP JUMP JUMPDEST PUSH1 0x0 JUMPDEST DUP4 DUP2 LT ISZERO PUSH2 0xB78 JUMPI DUP1 DUP3 ADD MLOAD DUP2 DUP5 ADD MSTORE PUSH1 0x20 DUP2 ADD SWAP1 POP PUSH2 0xB5D JUMP JUMPDEST PUSH1 0x0 DUP5 DUP5 ADD MSTORE POP POP POP POP JUMP JUMPDEST PUSH1 0x0 PUSH1 0x1F NOT PUSH1 0x1F DUP4 ADD AND SWAP1 POP SWAP2 SWAP1 POP JUMP JUMPDEST PUSH1 0x0 PUSH2 0xBA0 DUP3 PUSH2 0xB3E JUMP JUMPDEST PUSH2 0xBAA DUP2 DUP6 PUSH2 0xB49 JUMP JUMPDEST SWAP4 POP PUSH2 0xBBA DUP2 DUP6 PUSH1 0x20 DUP7 ADD PUSH2 0xB5A JUMP JUMPDEST PUSH2 0xBC3 DUP2 PUSH2 0xB84 JUMP JUMPDEST DUP5 ADD SWAP2 POP POP SWAP3 SWAP2 POP POP JUMP JUMPDEST PUSH1 0x0 DUP2 ISZERO ISZERO SWAP1 POP SWAP2 SWAP1 POP JUMP JUMPDEST PUSH2 0xBE3 DUP2 PUSH2 0xBCE JUMP JUMPDEST DUP3 MSTORE POP POP JUMP JUMPDEST PUSH1 0x0 PUSH1 0xC0 DUP3 ADD SWAP1 POP PUSH2 0xBFE PUSH1 0x0 DUP4 ADD DUP10 PUSH2 0xB2F JUMP JUMPDEST DUP2 DUP2 SUB PUSH1 0x20 DUP4 ADD MSTORE PUSH2 0xC10 DUP2 DUP9 PUSH2 0xB95 JUMP JUMPDEST SWAP1 POP DUP2 DUP2 SUB PUSH1 0x40 DUP4 ADD MSTORE PUSH2 0xC24 DUP2 DUP8 PUSH2 0xB95 JUMP JUMPDEST SWAP1 POP PUSH2 0xC33 PUSH1 0x60 DUP4 ADD DUP7 PUSH2 0xA66 JUMP JUMPDEST PUSH2 0xC40 PUSH1 0x80 DUP4 ADD DUP6 PUSH2 0xA66 JUMP JUMPDEST PUSH2 0xC4D PUSH1 0xA0 DUP4 ADD DUP5 PUSH2 0xBDA JUMP JUMPDEST SWAP8 SWAP7 POP POP POP POP POP POP POP JUMP JUMPDEST PUSH2 0xC61 DUP2 PUSH2 0xB1D JUMP JUMPDEST DUP2 EQ PUSH2 0xC6C JUMPI PUSH1 0x0 DUP1 REVERT JUMPDEST POP JUMP JUMPDEST PUSH1 0x0 DUP2 CALLDATALOAD SWAP1 POP PUSH2 0xC7E DUP2 PUSH2 0xC58 JUMP JUMPDEST SWAP3 SWAP2 POP POP JUMP JUMPDEST PUSH1 0x0 DUP1 REVERT JUMPDEST PUSH1 0x0 DUP1 REVERT JUMPDEST PUSH32 0x4E487B7100000000000000000000000000000000000000000000000000000000 PUSH1 0x0 MSTORE PUSH1 0x41 PUSH1 0x4 MSTORE PUSH1 0x24 PUSH1 0x0 REVERT JUMPDEST PUSH2 0xCC6 DUP3 PUSH2 0xB84 JUMP JUMPDEST DUP2 ADD DUP2 DUP2 LT PUSH8 0xFFFFFFFFFFFFFFFF DUP3 GT OR ISZERO PUSH2 0xCE5 JUMPI PUSH2 0xCE4 PUSH2 0xC8E JUMP JUMPDEST JUMPDEST DUP1 PUSH1 0x40 MSTORE POP POP POP JUMP JUMPDEST PUSH1 0x0 PUSH2 0xCF8 PUSH2 0xA90 JUMP JUMPDEST SWAP1 POP PUSH2 0xD04 DUP3 DUP3 PUSH2 0xCBD JUMP JUMPDEST SWAP2 SWAP1 POP JUMP JUMPDEST PUSH1 0x0 PUSH8 0xFFFFFFFFFFFFFFFF DUP3 GT ISZERO PUSH2 0xD24 JUMPI PUSH2 0xD23 PUSH2 0xC8E JUMP JUMPDEST JUMPDEST PUSH2 0xD2D DUP3 PUSH2 0xB84 JUMP JUMPDEST SWAP1 POP PUSH1 0x20 DUP2 ADD SWAP1 POP SWAP2 SWAP1 POP JUMP JUMPDEST DUP3 DUP2 DUP4 CALLDATACOPY PUSH1 0x0 DUP4 DUP4 ADD MSTORE POP POP POP JUMP JUMPDEST PUSH1 0x0 PUSH2 0xD5C PUSH2 0xD57 DUP5 PUSH2 0xD09 JUMP JUMPDEST PUSH2 0xCEE JUMP JUMPDEST SWAP1 POP DUP3 DUP2 MSTORE PUSH1 0x20 DUP2 ADD DUP5 DUP5 DUP5 ADD GT ISZERO PUSH2 0xD78 JUMPI PUSH2 0xD77 PUSH2 0xC89 JUMP JUMPDEST JUMPDEST PUSH2 0xD83 DUP5 DUP3 DUP6 PUSH2 0xD3A JUMP JUMPDEST POP SWAP4 SWAP3 POP POP POP JUMP JUMPDEST PUSH1 0x0 DUP3 PUSH1 0x1F DUP4 ADD SLT PUSH2 0xDA0 JUMPI PUSH2 0xD9F PUSH2 0xC84 JUMP JUMPDEST JUMPDEST DUP2 CALLDATALOAD PUSH2 0xDB0 DUP5 DUP3 PUSH1 0x20 DUP7 ADD PUSH2 0xD49 JUMP JUMPDEST SWAP2 POP POP SWAP3 SWAP2 POP POP JUMP JUMPDEST PUSH1 0x0 DUP1 PUSH1 0x0 DUP1 PUSH1 0x80 DUP6 DUP8 SUB SLT ISZERO PUSH2 0xDD3 JUMPI PUSH2 0xDD2 PUSH2 0xA9A JUMP JUMPDEST JUMPDEST PUSH1 0x0 PUSH2 0xDE1 DUP8 DUP3 DUP9 ADD PUSH2 0xC6F JUMP JUMPDEST SWAP5 POP POP PUSH1 0x20 DUP6 ADD CALLDATALOAD PUSH8 0xFFFFFFFFFFFFFFFF DUP2 GT ISZERO PUSH2 0xE02 JUMPI PUSH2 0xE01 PUSH2 0xA9F JUMP JUMPDEST JUMPDEST PUSH2 0xE0E DUP8 DUP3 DUP9 ADD PUSH2 0xD8B JUMP JUMPDEST SWAP4 POP POP PUSH1 0x40 DUP6 ADD CALLDATALOAD PUSH8 0xFFFFFFFFFFFFFFFF DUP2 GT ISZERO PUSH2 0xE2F JUMPI PUSH2 0xE2E PUSH2 0xA9F JUMP JUMPDEST JUMPDEST PUSH2 0xE3B DUP8 DUP3 DUP9 ADD PUSH2 0xD8B JUMP JUMPDEST SWAP3 POP POP PUSH1 0x60 PUSH2 0xE4C DUP8 DUP3 DUP9 ADD PUSH2 0xABB JUMP JUMPDEST SWAP2 POP POP SWAP3 SWAP6 SWAP2 SWAP5 POP SWAP3 POP JUMP JUMPDEST PUSH1 0x0 PUSH2 0xE63 DUP3 PUSH2 0xAFD JUMP JUMPDEST SWAP1 POP SWAP2 SWAP1 POP JUMP JUMPDEST PUSH2 0xE73 DUP2 PUSH2 0xE58 JUMP JUMPDEST DUP3 MSTORE POP POP JUMP JUMPDEST PUSH1 0x0 PUSH1 0x20 DUP3 ADD SWAP1 POP PUSH2 0xE8E PUSH1 0x0 DUP4 ADD DUP5 PUSH2 0xE6A JUMP JUMPDEST SWAP3 SWAP2 POP POP JUMP JUMPDEST PUSH2 0xE9D DUP2 PUSH2 0xE58 JUMP JUMPDEST DUP2 EQ PUSH2 0xEA8 JUMPI PUSH1 0x0 DUP1 REVERT JUMPDEST POP JUMP JUMPDEST PUSH1 0x0 DUP2 CALLDATALOAD SWAP1 POP PUSH2 0xEBA DUP2 PUSH2 0xE94 JUMP JUMPDEST SWAP3 SWAP2 POP POP JUMP JUMPDEST PUSH1 0x0 PUSH1 0x20 DUP3 DUP5 SUB SLT ISZERO PUSH2 0xED6 JUMPI PUSH2 0xED5 PUSH2 0xA9A JUMP JUMPDEST JUMPDEST PUSH1 0x0 PUSH2 0xEE4 DUP5 DUP3 DUP6 ADD PUSH2 0xEAB JUMP JUMPDEST SWAP2 POP POP SWAP3 SWAP2 POP POP JUMP JUMPDEST PUSH1 0x0 PUSH1 0x20 DUP3 ADD SWAP1 POP PUSH2 0xF02 PUSH1 0x0 DUP4 ADD DUP5 PUSH2 0xBDA JUMP JUMPDEST SWAP3 SWAP2 POP POP JUMP JUMPDEST PUSH32 0x4B6964206E6F7420666F756E6400000000000000000000000000000000000000 PUSH1 0x0 DUP3 ADD MSTORE POP JUMP JUMPDEST PUSH1 0x0 PUSH2 0xF3E PUSH1 0xD DUP4 PUSH2 0xB49 JUMP JUMPDEST SWAP2 POP PUSH2 0xF49 DUP3 PUSH2 0xF08 JUMP JUMPDEST PUSH1 0x20 DUP3 ADD SWAP1 POP SWAP2 SWAP1 POP JUMP JUMPDEST PUSH1 0x0 PUSH1 0x20 DUP3 ADD SWAP1 POP DUP2 DUP2 SUB PUSH1 0x0 DUP4 ADD MSTORE PUSH2 0xF6D DUP2 PUSH2 0xF31 JUMP JUMPDEST SWAP1 POP SWAP2 SWAP1 POP JUMP JUMPDEST PUSH32 0x4E487B7100000000000000000000000000000000000000000000000000000000 PUSH1 0x0 MSTORE PUSH1 0x32 PUSH1 0x4 MSTORE PUSH1 0x24 PUSH1 0x0 REVERT JUMPDEST PUSH32 0x5769746864726177616C206E6F7420616C6C6F77656400000000000000000000 PUSH1 0x0 DUP3 ADD MSTORE POP JUMP JUMPDEST PUSH1 0x0 PUSH2 0xFD9 PUSH1 0x16 DUP4 PUSH2 0xB49 JUMP JUMPDEST SWAP2 POP PUSH2 0xFE4 DUP3 PUSH2 0xFA3 JUMP JUMPDEST PUSH1 0x20 DUP3 ADD SWAP1 POP SWAP2 SWAP1 POP JUMP JUMPDEST PUSH1 0x0 PUSH1 0x20 DUP3 ADD SWAP1 POP DUP2 DUP2 SUB PUSH1 0x0 DUP4 ADD MSTORE PUSH2 0x1008 DUP2 PUSH2 0xFCC JUMP JUMPDEST SWAP1 POP SWAP2 SWAP1 POP JUMP JUMPDEST PUSH32 0x4E6F2066756E647320617661696C61626C650000000000000000000000000000 PUSH1 0x0 DUP3 ADD MSTORE POP JUMP JUMPDEST PUSH1 0x0 PUSH2 0x1045 PUSH1 0x12 DUP4 PUSH2 0xB49 JUMP JUMPDEST SWAP2 POP PUSH2 0x1050 DUP3 PUSH2 0x100F JUMP JUMPDEST PUSH1 0x20 DUP3 ADD SWAP1 POP SWAP2 SWAP1 POP JUMP JUMPDEST PUSH1 0x0 PUSH1 0x20 DUP3 ADD SWAP1 POP DUP2 DUP2 SUB PUSH1 0x0 DUP4 ADD MSTORE PUSH2 0x1074 DUP2 PUSH2 0x1038 JUMP JUMPDEST SWAP1 POP SWAP2 SWAP1 POP JUMP JUMPDEST PUSH32 0x4E487B7100000000000000000000000000000000000000000000000000000000 PUSH1 0x0 MSTORE PUSH1 0x22 PUSH1 0x4 MSTORE PUSH1 0x24 PUSH1 0x0 REVERT JUMPDEST PUSH1 0x0 PUSH1 0x2 DUP3 DIV SWAP1 POP PUSH1 0x1 DUP3 AND DUP1 PUSH2 0x10C2 JUMPI PUSH1 0x7F DUP3 AND SWAP2 POP JUMPDEST PUSH1 0x20 DUP3 LT DUP2 SUB PUSH2 0x10D5 JUMPI PUSH2 0x10D4 PUSH2 0x107B JUMP JUMPDEST JUMPDEST POP SWAP2 SWAP1 POP JUMP JUMPDEST PUSH32 0x4F6E6C7920746865206F776E65722063616E20706572666F726D207468697320 PUSH1 0x0 DUP3 ADD MSTORE PUSH32 0x616374696F6E0000000000000000000000000000000000000000000000000000 PUSH1 0x20 DUP3 ADD MSTORE POP JUMP JUMPDEST PUSH1 0x0 PUSH2 0x1137 PUSH1 0x26 DUP4 PUSH2 0xB49 JUMP JUMPDEST SWAP2 POP PUSH2 0x1142 DUP3 PUSH2 0x10DB JUMP JUMPDEST PUSH1 0x40 DUP3 ADD SWAP1 POP SWAP2 SWAP1 POP JUMP JUMPDEST PUSH1 0x0 PUSH1 0x20 DUP3 ADD SWAP1 POP DUP2 DUP2 SUB PUSH1 0x0 DUP4 ADD MSTORE PUSH2 0x1166 DUP2 PUSH2 0x112A JUMP JUMPDEST SWAP1 POP SWAP2 SWAP1 POP JUMP JUMPDEST PUSH1 0x0 DUP2 SWAP1 POP DUP2 PUSH1 0x0 MSTORE PUSH1 0x20 PUSH1 0x0 KECCAK256 SWAP1 POP SWAP2 SWAP1 POP JUMP JUMPDEST PUSH1 0x0 PUSH1 0x20 PUSH1 0x1F DUP4 ADD DIV SWAP1 POP SWAP2 SWAP1 POP JUMP JUMPDEST PUSH1 0x0 DUP3 DUP3 SHL SWAP1 POP SWAP3 SWAP2 POP POP JUMP JUMPDEST PUSH1 0x0 PUSH1 0x8 DUP4 MUL PUSH2 0x11CF PUSH32 0xFFFFFFFFFFFFFFFFFFFFFFFFFFFFFFFFFFFFFFFFFFFFFFFFFFFFFFFFFFFFFFFF DUP3 PUSH2 0x1192 JUMP JUMPDEST PUSH2 0x11D9 DUP7 DUP4 PUSH2 0x1192 JUMP JUMPDEST SWAP6 POP DUP1 NOT DUP5 AND SWAP4 POP DUP1 DUP7 AND DUP5 OR SWAP3 POP POP POP SWAP4 SWAP3 POP POP POP JUMP JUMPDEST PUSH1 0x0 DUP2 SWAP1 POP SWAP2 SWAP1 POP JUMP JUMPDEST PUSH1 0x0 PUSH2 0x1216 PUSH2 0x1211 PUSH2 0x120C DUP5 PUSH2 0xA5C JUMP JUMPDEST PUSH2 0x11F1 JUMP JUMPDEST PUSH2 0xA5C JUMP JUMPDEST SWAP1 POP SWAP2 SWAP1 POP JUMP JUMPDEST PUSH1 0x0 DUP2 SWAP1 POP SWAP2 SWAP1 POP JUMP JUMPDEST PUSH2 0x1230 DUP4 PUSH2 0x11FB JUMP JUMPDEST PUSH2 0x1244 PUSH2 0x123C DUP3 PUSH2 0x121D JUMP JUMPDEST DUP5 DUP5 SLOAD PUSH2 0x119F JUMP JUMPDEST DUP3 SSTORE POP POP POP POP JUMP JUMPDEST PUSH1 0x0 SWAP1 JUMP JUMPDEST PUSH2 0x1259 PUSH2 0x124C JUMP JUMPDEST PUSH2 0x1264 DUP2 DUP5 DUP5 PUSH2 0x1227 JUMP JUMPDEST POP POP POP JUMP JUMPDEST JUMPDEST DUP2 DUP2 LT ISZERO PUSH2 0x1288 JUMPI PUSH2 0x127D PUSH1 0x0 DUP3 PUSH2 0x1251 JUMP JUMPDEST PUSH1 0x1 DUP2 ADD SWAP1 POP PUSH2 0x126A JUMP JUMPDEST POP POP JUMP JUMPDEST PUSH1 0x1F DUP3 GT ISZERO PUSH2 0x12CD JUMPI PUSH2 0x129E DUP2 PUSH2 0x116D JUMP JUMPDEST PUSH2 0x12A7 DUP5 PUSH2 0x1182 JUMP JUMPDEST DUP2 ADD PUSH1 0x20 DUP6 LT ISZERO PUSH2 0x12B6 JUMPI DUP2 SWAP1 POP JUMPDEST PUSH2 0x12CA PUSH2 0x12C2 DUP6 PUSH2 0x1182 JUMP JUMPDEST DUP4 ADD DUP3 PUSH2 0x1269 JUMP JUMPDEST POP POP JUMPDEST POP POP POP JUMP JUMPDEST PUSH1 0x0 DUP3 DUP3 SHR SWAP1 POP SWAP3 SWAP2 POP POP JUMP JUMPDEST PUSH1 0x0 PUSH2 0x12F0 PUSH1 0x0 NOT DUP5 PUSH1 0x8 MUL PUSH2 0x12D2 JUMP JUMPDEST NOT DUP1 DUP4 AND SWAP2 POP POP SWAP3 SWAP2 POP POP JUMP JUMPDEST PUSH1 0x0 PUSH2 0x1309 DUP4 DUP4 PUSH2 0x12DF JUMP JUMPDEST SWAP2 POP DUP3 PUSH1 0x2 MUL DUP3 OR SWAP1 POP SWAP3 SWAP2 POP POP JUMP JUMPDEST PUSH2 0x1322 DUP3 PUSH2 0xB3E JUMP JUMPDEST PUSH8 0xFFFFFFFFFFFFFFFF DUP2 GT ISZERO PUSH2 0x133B JUMPI PUSH2 0x133A PUSH2 0xC8E JUMP JUMPDEST JUMPDEST PUSH2 0x1345 DUP3 SLOAD PUSH2 0x10AA JUMP JUMPDEST PUSH2 0x1350 DUP3 DUP3 DUP6 PUSH2 0x128C JUMP JUMPDEST PUSH1 0x0 PUSH1 0x20 SWAP1 POP PUSH1 0x1F DUP4 GT PUSH1 0x1 DUP2 EQ PUSH2 0x1383 JUMPI PUSH1 0x0 DUP5 ISZERO PUSH2 0x1371 JUMPI DUP3 DUP8 ADD MLOAD SWAP1 POP JUMPDEST PUSH2 0x137B DUP6 DUP3 PUSH2 0x12FD JUMP JUMPDEST DUP7 SSTORE POP PUSH2 0x13E3 JUMP JUMPDEST PUSH1 0x1F NOT DUP5 AND PUSH2 0x1391 DUP7 PUSH2 0x116D JUMP JUMPDEST PUSH1 0x0 JUMPDEST DUP3 DUP2 LT ISZERO PUSH2 0x13B9 JUMPI DUP5 DUP10 ADD MLOAD DUP3 SSTORE PUSH1 0x1 DUP3 ADD SWAP2 POP PUSH1 0x20 DUP6 ADD SWAP5 POP PUSH1 0x20 DUP2 ADD SWAP1 POP PUSH2 0x1394 JUMP JUMPDEST DUP7 DUP4 LT ISZERO PUSH2 0x13D6 JUMPI DUP5 DUP10 ADD MLOAD PUSH2 0x13D2 PUSH1 0x1F DUP10 AND DUP3 PUSH2 0x12DF JUMP JUMPDEST DUP4 SSTORE POP JUMPDEST PUSH1 0x1 PUSH1 0x2 DUP9 MUL ADD DUP9 SSTORE POP POP POP JUMPDEST POP POP POP POP POP POP JUMP JUMPDEST PUSH32 0x43616E6E6F742077697468647261772079657400000000000000000000000000 PUSH1 0x0 DUP3 ADD MSTORE POP JUMP JUMPDEST PUSH1 0x0 PUSH2 0x1421 PUSH1 0x13 DUP4 PUSH2 0xB49 JUMP JUMPDEST SWAP2 POP PUSH2 0x142C DUP3 PUSH2 0x13EB JUMP JUMPDEST PUSH1 0x20 DUP3 ADD SWAP1 POP SWAP2 SWAP1 POP JUMP JUMPDEST PUSH1 0x0 PUSH1 0x20 DUP3 ADD SWAP1 POP DUP2 DUP2 SUB PUSH1 0x0 DUP4 ADD MSTORE PUSH2 0x1450 DUP2 PUSH2 0x1414 JUMP JUMPDEST SWAP1 POP SWAP2 SWAP1 POP JUMP JUMPDEST PUSH32 0x4D7573742073656E6420736F6D65204554480000000000000000000000000000 PUSH1 0x0 DUP3 ADD MSTORE POP JUMP JUMPDEST PUSH1 0x0 PUSH2 0x148D PUSH1 0x12 DUP4 PUSH2 0xB49 JUMP JUMPDEST SWAP2 POP PUSH2 0x1498 DUP3 PUSH2 0x1457 JUMP JUMPDEST PUSH1 0x20 DUP3 ADD SWAP1 POP SWAP2 SWAP1 POP JUMP JUMPDEST PUSH1 0x0 PUSH1 0x20 DUP3 ADD SWAP1 POP DUP2 DUP2 SUB PUSH1 0x0 DUP4 ADD MSTORE PUSH2 0x14BC DUP2 PUSH2 0x1480 JUMP JUMPDEST SWAP1 POP SWAP2 SWAP1 POP JUMP JUMPDEST PUSH32 0x4E487B7100000000000000000000000000000000000000000000000000000000 PUSH1 0x0 MSTORE PUSH1 0x11 PUSH1 0x4 MSTORE PUSH1 0x24 PUSH1 0x0 REVERT JUMPDEST PUSH1 0x0 PUSH2 0x14FD DUP3 PUSH2 0xA5C JUMP JUMPDEST SWAP2 POP PUSH2 0x1508 DUP4 PUSH2 0xA5C JUMP JUMPDEST SWAP3 POP DUP3 DUP3 ADD SWAP1 POP DUP1 DUP3 GT ISZERO PUSH2 0x1520 JUMPI PUSH2 0x151F PUSH2 0x14C3 JUMP JUMPDEST JUMPDEST SWAP3 SWAP2 POP POP JUMP JUMPDEST PUSH1 0x0 PUSH1 0x40 DUP3 ADD SWAP1 POP PUSH2 0x153B PUSH1 0x0 DUP4 ADD DUP6 PUSH2 0xA66 JUMP JUMPDEST PUSH2 0x1548 PUSH1 0x20 DUP4 ADD DUP5 PUSH2 0xA66 JUMP JUMPDEST SWAP4 SWAP3 POP POP POP JUMP INVALID LOG2 PUSH5 0x6970667358 0x22 SLT KECCAK256 CALL 0x27 MSTORE ISZERO DUP11 0x28 0xEB 0xB6 LOG3 0x2D DUP7 0xC 0xA8 PUSH0 0xEF TLOAD SDIV BYTE 0xE6 PUSH22 0x1F34354325EF5FA8C7BB787664736F6C634300081C00 CALLER "},"methodIdentifiers":{"addKid(address,string,string,uint256)":"81ab8471","availableToWithdraw(address)":"a25db8ce","balanceOf()":"722713f7","deposit(address)":"f340fa01","kids(uint256)":"7285fd3a","owner()":"8da5cb5b","withdraw()":"3ccfd60b"}}}}}