{
  "_format": "hh-sol-artifact-1",
  "contractName": "Fixed",
  "sourceName": "contracts/Reentrancy.sol",
  "abi": [
    {
      "inputs": [
        {
          "internalType": "address",
          "name": "",
          "type": "address"
        }
      ],
      "name": "balances",
      "outputs": [
        {
          "internalType": "uint256",
          "name": "",
          "type": "uint256"
        }
      ],
      "stateMutability": "view",
      "type": "function"
    },
    {
      "inputs": [],
      "name": "deposit",
      "outputs": [],
      "stateMutability": "payable",
      "type": "function"
    },
    {
      "inputs": [],
      "name": "withdraw",
      "outputs": [],
      "stateMutability": "nonpayable",
      "type": "function"
    }
  ],
  "bytecode": "0x6080604052348015600f57600080fd5b506105fd8061001f6000396000f3fe6080604052600436106100345760003560e01c806327e235e3146100395780633ccfd60b14610076578063d0e30db01461008d575b600080fd5b34801561004557600080fd5b50610060600480360381019061005b9190610368565b610097565b60405161006d91906103ae565b60405180910390f35b34801561008257600080fd5b5061008b6100af565b005b6100956102ae565b005b60006020528060005260406000206000915090505481565b600160009054906101000a900460ff16156100ff576040517f08c379a00000000000000000000000000000000000000000000000000000000081526004016100f690610426565b60405180910390fd5b60018060006101000a81548160ff02191690831515021790555060008060003373ffffffffffffffffffffffffffffffffffffffff1673ffffffffffffffffffffffffffffffffffffffff1681526020019081526020016000205490506000811161019f576040517f08c379a000000000000000000000000000000000000000000000000000000000815260040161019690610492565b60405180910390fd5b60008060003373ffffffffffffffffffffffffffffffffffffffff1673ffffffffffffffffffffffffffffffffffffffff1681526020019081526020016000208190555060003373ffffffffffffffffffffffffffffffffffffffff1682604051610209906104e3565b60006040518083038185875af1925050503d8060008114610246576040519150601f19603f3d011682016040523d82523d6000602084013e61024b565b606091505b505090508061028f576040517f08c379a000000000000000000000000000000000000000000000000000000000815260040161028690610544565b60405180910390fd5b50506000600160006101000a81548160ff021916908315150217905550565b346000803373ffffffffffffffffffffffffffffffffffffffff1673ffffffffffffffffffffffffffffffffffffffff16815260200190815260200160002060008282546102fc9190610593565b92505081905550565b600080fd5b600073ffffffffffffffffffffffffffffffffffffffff82169050919050565b60006103358261030a565b9050919050565b6103458161032a565b811461035057600080fd5b50565b6000813590506103628161033c565b92915050565b60006020828403121561037e5761037d610305565b5b600061038c84828501610353565b91505092915050565b6000819050919050565b6103a881610395565b82525050565b60006020820190506103c3600083018461039f565b92915050565b600082825260208201905092915050565b7f5265656e7472616e637947756172643a207265656e7472616e742063616c6c00600082015250565b6000610410601f836103c9565b915061041b826103da565b602082019050919050565b6000602082019050818103600083015261043f81610403565b9050919050565b7f4e6f2062616c616e636500000000000000000000000000000000000000000000600082015250565b600061047c600a836103c9565b915061048782610446565b602082019050919050565b600060208201905081810360008301526104ab8161046f565b9050919050565b600081905092915050565b50565b60006104cd6000836104b2565b91506104d8826104bd565b600082019050919050565b60006104ee826104c0565b9150819050919050565b7f5472616e73666572206661696c65640000000000000000000000000000000000600082015250565b600061052e600f836103c9565b9150610539826104f8565b602082019050919050565b6000602082019050818103600083015261055d81610521565b9050919050565b7f4e487b7100000000000000000000000000000000000000000000000000000000600052601160045260246000fd5b600061059e82610395565b91506105a983610395565b92508282019050808211156105c1576105c0610564565b5b9291505056fea264697066735822122061f09cd08b8a2d4ce764da1a1bd5ea1cc15b4d5af1590b1f5faaea6a94055cc864736f6c634300081c0033",
  "linkReferences": {},
  "deployedLinkReferences": {}
}