{
  "_format": "hh-sol-artifact-1",
  "contractName": "CryptoKids",
  "sourceName": "contracts/CryptoKids.sol",
  "abi": [
    {
      "inputs": [],
      "stateMutability": "nonpayable",
      "type": "constructor"
    },
    {
      "anonymous": false,
      "inputs": [
        {
          "indexed": true,
          "internalType": "address",
          "name": "addr",
          "type": "address"
        },
        {
          "indexed": false,
          "internalType": "uint256",
          "name": "amount",
          "type": "uint256"
        }
      ],
      "name": "KidWithdrawn",
      "type": "event"
    },
    {
      "anonymous": false,
      "inputs": [
        {
          "indexed": true,
          "internalType": "address",
          "name": "addr",
          "type": "address"
        },
        {
          "indexed": false,
          "internalType": "uint256",
          "name": "amount",
          "type": "uint256"
        },
        {
          "indexed": false,
          "internalType": "uint256",
          "name": "contractBalance",
          "type": "uint256"
        }
      ],
      "name": "LogKidFundingReceived",
      "type": "event"
    },
    {
      "inputs": [
        {
          "internalType": "address payable",
          "name": "walletAddress",
          "type": "address"
        },
        {
          "internalType": "string",
          "name": "firstName",
          "type": "string"
        },
        {
          "internalType": "string",
          "name": "lastName",
          "type": "string"
        },
        {
          "internalType": "uint256",
          "name": "releaseTime",
          "type": "uint256"
        }
      ],
      "name": "addKid",
      "outputs": [],
      "stateMutability": "nonpayable",
      "type": "function"
    },
    {
      "inputs": [
        {
          "internalType": "address",
          "name": "walletAddress",
          "type": "address"
        }
      ],
      "name": "availableToWithdraw",
      "outputs": [
        {
          "internalType": "bool",
          "name": "",
          "type": "bool"
        }
      ],
      "stateMutability": "nonpayable",
      "type": "function"
    },
    {
      "inputs": [],
      "name": "balanceOf",
      "outputs": [
        {
          "internalType": "uint256",
          "name": "",
          "type": "uint256"
        }
      ],
      "stateMutability": "view",
      "type": "function"
    },
    {
      "inputs": [
        {
          "internalType": "address",
          "name": "walletAddress",
          "type": "address"
        }
      ],
      "name": "deposit",
      "outputs": [],
      "stateMutability": "payable",
      "type": "function"
    },
    {
      "inputs": [
        {
          "internalType": "uint256",
          "name": "",
          "type": "uint256"
        }
      ],
      "name": "kids",
      "outputs": [
        {
          "internalType": "address payable",
          "name": "walletAddress",
          "type": "address"
        },
        {
          "internalType": "string",
          "name": "firstName",
          "type": "string"
        },
        {
          "internalType": "string",
          "name": "lastName",
          "type": "string"
        },
        {
          "internalType": "uint256",
          "name": "releaseTime",
          "type": "uint256"
        },
        {
          "internalType": "uint256",
          "name": "amount",
          "type": "uint256"
        },
        {
          "internalType": "bool",
          "name": "canWithdraw",
          "type": "bool"
        }
      ],
      "stateMutability": "view",
      "type": "function"
    },
    {
      "inputs": [],
      "name": "owner",
      "outputs": [
        {
          "internalType": "address",
          "name": "",
          "type": "address"
        }
      ],
      "stateMutability": "view",
      "type": "function"
    },
    {
      "inputs": [],
      "name": "withdraw",
      "outputs": [],
      "stateMutability": "nonpayable",
      "type": "function"
    }
  ],
  "bytecode": "0x6080604052348015600f57600080fd5b50336000806101000a81548173ffffffffffffffffffffffffffffffffffffffff021916908373ffffffffffffffffffffffffffffffffffffffff1602179055506115858061005f6000396000f3fe6080604052600436106100705760003560e01c806381ab84711161004e57806381ab8471146100f95780638da5cb5b14610122578063a25db8ce1461014d578063f340fa011461018a57610070565b80633ccfd60b14610075578063722713f71461008c5780637285fd3a146100b7575b600080fd5b34801561008157600080fd5b5061008a6101a6565b005b34801561009857600080fd5b506100a161041d565b6040516100ae9190610a75565b60405180910390f35b3480156100c357600080fd5b506100de60048036038101906100d99190610ad0565b610425565b6040516100f096959493929190610be9565b60405180910390f35b34801561010557600080fd5b50610120600480360381019061011b9190610db9565b6105ae565b005b34801561012e57600080fd5b5061013761075d565b6040516101449190610e79565b60405180910390f35b34801561015957600080fd5b50610174600480360381019061016f9190610ec0565b610781565b6040516101819190610eed565b60405180910390f35b6101a4600480360381019061019f9190610ec0565b610882565b005b60006101b1336109ad565b90506103e781036101f7576040517f08c379a00000000000000000000000000000000000000000000000000000000081526004016101ee90610f54565b60405180910390fd5b6001818154811061020b5761020a610f74565b5b906000526020600020906006020160050160009054906101000a900460ff16610269576040517f08c379a000000000000000000000000000000000000000000000000000000000815260040161026090610fef565b60405180910390fd5b60006001828154811061027f5761027e610f74565b5b9060005260206000209060060201600401549050600081116102d6576040517f08c379a00000000000000000000000000000000000000000000000000000000081526004016102cd9061105b565b60405180910390fd5b6000600183815481106102ec576102eb610f74565b5b90600052602060002090600602016004018190555060006001838154811061031757610316610f74565b5b906000526020600020906006020160050160006101000a81548160ff0219169083151502179055506001828154811061035357610352610f74565b5b906000526020600020906006020160000160009054906101000a900473ffffffffffffffffffffffffffffffffffffffff1673ffffffffffffffffffffffffffffffffffffffff166108fc829081150290604051600060405180830381858888f193505050501580156103ca573d6000803e3d6000fd5b503373ffffffffffffffffffffffffffffffffffffffff167f9c6fac0664663793e0185da2dac18b87679232115ae735056d7876e9df5e71a6826040516104119190610a75565b60405180910390a25050565b600047905090565b6001818154811061043557600080fd5b90600052602060002090600602016000915090508060000160009054906101000a900473ffffffffffffffffffffffffffffffffffffffff169080600101805461047e906110aa565b80601f01602080910402602001604051908101604052809291908181526020018280546104aa906110aa565b80156104f75780601f106104cc576101008083540402835291602001916104f7565b820191906000526020600020905b8154815290600101906020018083116104da57829003601f168201915b50505050509080600201805461050c906110aa565b80601f0160208091040260200160405190810160405280929190818152602001828054610538906110aa565b80156105855780601f1061055a57610100808354040283529160200191610585565b820191906000526020600020905b81548152906001019060200180831161056857829003601f168201915b5050505050908060030154908060040154908060050160009054906101000a900460ff16905086565b60008054906101000a900473ffffffffffffffffffffffffffffffffffffffff1673ffffffffffffffffffffffffffffffffffffffff163373ffffffffffffffffffffffffffffffffffffffff161461063c576040517f08c379a00000000000000000000000000000000000000000000000000000000081526004016106339061114d565b60405180910390fd5b60016040518060c001604052808673ffffffffffffffffffffffffffffffffffffffff1681526020018581526020018481526020018381526020016000815260200160001515815250908060018154018082558091505060019003906000526020600020906006020160009091909190915060008201518160000160006101000a81548173ffffffffffffffffffffffffffffffffffffffff021916908373ffffffffffffffffffffffffffffffffffffffff160217905550602082015181600101908161070a9190611319565b5060408201518160020190816107209190611319565b50606082015181600301556080820151816004015560a08201518160050160006101000a81548160ff021916908315150217905550505050505050565b60008054906101000a900473ffffffffffffffffffffffffffffffffffffffff1681565b60008061078d836109ad565b90506103e781036107d3576040517f08c379a00000000000000000000000000000000000000000000000000000000081526004016107ca90610f54565b60405180910390fd5b600181815481106107e7576107e6610f74565b5b90600052602060002090600602016003015442101561083b576040517f08c379a000000000000000000000000000000000000000000000000000000000815260040161083290611437565b60405180910390fd5b60018082815481106108505761084f610f74565b5b906000526020600020906006020160050160006101000a81548160ff0219169083151502179055506001915050919050565b600034116108c5576040517f08c379a00000000000000000000000000000000000000000000000000000000081526004016108bc906114a3565b60405180910390fd5b60006108d0826109ad565b90506103e78103610916576040517f08c379a000000000000000000000000000000000000000000000000000000000815260040161090d90610f54565b60405180910390fd5b346001828154811061092b5761092a610f74565b5b9060005260206000209060060201600401600082825461094b91906114f2565b925050819055508173ffffffffffffffffffffffffffffffffffffffff167fdfa390b0c1c515579c441209b0f88953b3383e444305380136073b84d9ae5eaf3461099361041d565b6040516109a1929190611526565b60405180910390a25050565b600080600090505b600180549050811015610a50578273ffffffffffffffffffffffffffffffffffffffff16600182815481106109ed576109ec610f74565b5b906000526020600020906006020160000160009054906101000a900473ffffffffffffffffffffffffffffffffffffffff1673ffffffffffffffffffffffffffffffffffffffff1603610a435780915050610a57565b80806001019150506109b5565b506103e790505b919050565b6000819050919050565b610a6f81610a5c565b82525050565b6000602082019050610a8a6000830184610a66565b92915050565b6000604051905090565b600080fd5b600080fd5b610aad81610a5c565b8114610ab857600080fd5b50565b600081359050610aca81610aa4565b92915050565b600060208284031215610ae657610ae5610a9a565b5b6000610af484828501610abb565b91505092915050565b600073ffffffffffffffffffffffffffffffffffffffff82169050919050565b6000610b2882610afd565b9050919050565b610b3881610b1d565b82525050565b600081519050919050565b600082825260208201905092915050565b60005b83811015610b78578082015181840152602081019050610b5d565b60008484015250505050565b6000601f19601f8301169050919050565b6000610ba082610b3e565b610baa8185610b49565b9350610bba818560208601610b5a565b610bc381610b84565b840191505092915050565b60008115159050919050565b610be381610bce565b82525050565b600060c082019050610bfe6000830189610b2f565b8181036020830152610c108188610b95565b90508181036040830152610c248187610b95565b9050610c336060830186610a66565b610c406080830185610a66565b610c4d60a0830184610bda565b979650505050505050565b610c6181610b1d565b8114610c6c57600080fd5b50565b600081359050610c7e81610c58565b92915050565b600080fd5b600080fd5b7f4e487b7100000000000000000000000000000000000000000000000000000000600052604160045260246000fd5b610cc682610b84565b810181811067ffffffffffffffff82111715610ce557610ce4610c8e565b5b80604052505050565b6000610cf8610a90565b9050610d048282610cbd565b919050565b600067ffffffffffffffff821115610d2457610d23610c8e565b5b610d2d82610b84565b9050602081019050919050565b82818337600083830152505050565b6000610d5c610d5784610d09565b610cee565b905082815260208101848484011115610d7857610d77610c89565b5b610d83848285610d3a565b509392505050565b600082601f830112610da057610d9f610c84565b5b8135610db0848260208601610d49565b91505092915050565b60008060008060808587031215610dd357610dd2610a9a565b5b6000610de187828801610c6f565b945050602085013567ffffffffffffffff811115610e0257610e01610a9f565b5b610e0e87828801610d8b565b935050604085013567ffffffffffffffff811115610e2f57610e2e610a9f565b5b610e3b87828801610d8b565b9250506060610e4c87828801610abb565b91505092959194509250565b6000610e6382610afd565b9050919050565b610e7381610e58565b82525050565b6000602082019050610e8e6000830184610e6a565b92915050565b610e9d81610e58565b8114610ea857600080fd5b50565b600081359050610eba81610e94565b92915050565b600060208284031215610ed657610ed5610a9a565b5b6000610ee484828501610eab565b91505092915050565b6000602082019050610f026000830184610bda565b92915050565b7f4b6964206e6f7420666f756e6400000000000000000000000000000000000000600082015250565b6000610f3e600d83610b49565b9150610f4982610f08565b602082019050919050565b60006020820190508181036000830152610f6d81610f31565b9050919050565b7f4e487b7100000000000000000000000000000000000000000000000000000000600052603260045260246000fd5b7f5769746864726177616c206e6f7420616c6c6f77656400000000000000000000600082015250565b6000610fd9601683610b49565b9150610fe482610fa3565b602082019050919050565b6000602082019050818103600083015261100881610fcc565b9050919050565b7f4e6f2066756e647320617661696c61626c650000000000000000000000000000600082015250565b6000611045601283610b49565b91506110508261100f565b602082019050919050565b6000602082019050818103600083015261107481611038565b9050919050565b7f4e487b7100000000000000000000000000000000000000000000000000000000600052602260045260246000fd5b600060028204905060018216806110c257607f821691505b6020821081036110d5576110d461107b565b5b50919050565b7f4f6e6c7920746865206f776e65722063616e20706572666f726d20746869732060008201527f616374696f6e0000000000000000000000000000000000000000000000000000602082015250565b6000611137602683610b49565b9150611142826110db565b604082019050919050565b600060208201905081810360008301526111668161112a565b9050919050565b60008190508160005260206000209050919050565b60006020601f8301049050919050565b600082821b905092915050565b6000600883026111cf7fffffffffffffffffffffffffffffffffffffffffffffffffffffffffffffffff82611192565b6111d98683611192565b95508019841693508086168417925050509392505050565b6000819050919050565b600061121661121161120c84610a5c565b6111f1565b610a5c565b9050919050565b6000819050919050565b611230836111fb565b61124461123c8261121d565b84845461119f565b825550505050565b600090565b61125961124c565b611264818484611227565b505050565b5b818110156112885761127d600082611251565b60018101905061126a565b5050565b601f8211156112cd5761129e8161116d565b6112a784611182565b810160208510156112b6578190505b6112ca6112c285611182565b830182611269565b50505b505050565b600082821c905092915050565b60006112f0600019846008026112d2565b1980831691505092915050565b600061130983836112df565b9150826002028217905092915050565b61132282610b3e565b67ffffffffffffffff81111561133b5761133a610c8e565b5b61134582546110aa565b61135082828561128c565b600060209050601f8311600181146113835760008415611371578287015190505b61137b85826112fd565b8655506113e3565b601f1984166113918661116d565b60005b828110156113b957848901518255600182019150602085019450602081019050611394565b868310156113d657848901516113d2601f8916826112df565b8355505b6001600288020188555050505b505050505050565b7f43616e6e6f742077697468647261772079657400000000000000000000000000600082015250565b6000611421601383610b49565b915061142c826113eb565b602082019050919050565b6000602082019050818103600083015261145081611414565b9050919050565b7f4d7573742073656e6420736f6d65204554480000000000000000000000000000600082015250565b600061148d601283610b49565b915061149882611457565b602082019050919050565b600060208201905081810360008301526114bc81611480565b9050919050565b7f4e487b7100000000000000000000000000000000000000000000000000000000600052601160045260246000fd5b60006114fd82610a5c565b915061150883610a5c565b92508282019050808211156115205761151f6114c3565b5b92915050565b600060408201905061153b6000830185610a66565b6115486020830184610a66565b939250505056fea2646970667358221220f12752158a28ebb6a32d860ca85fef5c051ae6751f34354325ef5fa8c7bb787664736f6c634300081c0033",
  "linkReferences": {},
  "deployedLinkReferences": {}
}