{"abi":[{"type":"function","name":"complexTransaction","inputs":[],"outputs":[],"stateMutability":"nonpayable"},{"type":"function","name":"simpleTransaction","inputs":[],"outputs":[],"stateMutability":"nonpayable"},{"type":"function","name":"storageTransaction","inputs":[],"outputs":[],"stateMutability":"nonpayable"},{"type":"event","name":"GasUsed","inputs":[{"name":"transactionType","type":"string","indexed":false,"internalType":"string"},{"name":"gasUsed","type":"uint256","indexed":false,"internalType":"uint256"}],"anonymous":false}],"bytecode":{"object":"0x6080604052348015600e575f5ffd5b506106348061001c5f395ff3fe608060405234801561000f575f5ffd5b506004361061003f575f3560e01c8063c869c3e514610043578063ce30c5ed1461004d578063edd3e74a14610057575b5f5ffd5b61004b610061565b005b6100556100b5565b005b61005f6101e7565b005b425f5f60c8811061007557610074610307565b5b01819055507f443ab68a4cacb08d38c92183e87a41d7056d4e3f5587d896f025fb5026afc0966152086040516100ab91906103d9565b60405180910390a1565b5f5f90505b60328110156101395742816100cf9190610432565b5f8260c881106100e2576100e1610307565b5b018190555060025f8260c881106100fc576100fb610307565b5b01546101089190610432565b5f6032836101169190610473565b60c8811061012757610126610307565b5b018190555080806001019150506100ba565b505f5f90505f5f90505b60328110156101ac575f8160c8811061015f5761015e610307565b5b01548261016c9190610473565b9150815f6002603261017e9190610432565b836101899190610473565b60c8811061019a57610199610307565b5b01819055508080600101915050610143565b507f443ab68a4cacb08d38c92183e87a41d7056d4e3f5587d896f025fb5026afc0965a6040516101dc91906104ff565b60405180910390a150565b6101ef6102e4565b5f5f90505f5f90505b603281101561028f57428161020d9190610432565b8382606481106102205761021f610307565b5b60200201818152505082816064811061023c5761023b610307565b5b60200201518261024c9190610473565b915060018161025b9190610473565b826102669190610558565b83826064811061027957610278610307565b5b60200201818152505080806001019150506101f8565b50805f5f60c881106102a4576102a3610307565b5b01819055507f443ab68a4cacb08d38c92183e87a41d7056d4e3f5587d896f025fb5026afc0965a6040516102d891906105d2565b60405180910390a15050565b60405180610c800160405280606490602082028036833780820191505090505090565b7f4e487b71000000000000000000000000000000000000000000000000000000005f52603260045260245ffd5b5f82825260208201905092915050565b7f53696d706c65205472616e73616374696f6e00000000000000000000000000005f82015250565b5f610378601283610334565b915061038382610344565b602082019050919050565b5f819050919050565b5f819050919050565b5f819050919050565b5f6103c36103be6103b98461038e565b6103a0565b610397565b9050919050565b6103d3816103a9565b82525050565b5f6040820190508181035f8301526103f08161036c565b90506103ff60208301846103ca565b92915050565b7f4e487b71000000000000000000000000000000000000000000000000000000005f52601160045260245ffd5b5f61043c82610397565b915061044783610397565b925082820261045581610397565b9150828204841483151761046c5761046b610405565b5b5092915050565b5f61047d82610397565b915061048883610397565b92508282019050808211156104a05761049f610405565b5b92915050565b7f53746f72616765205472616e73616374696f6e000000000000000000000000005f82015250565b5f6104da601383610334565b91506104e5826104a6565b602082019050919050565b6104f981610397565b82525050565b5f6040820190508181035f830152610516816104ce565b905061052560208301846104f0565b92915050565b7f4e487b71000000000000000000000000000000000000000000000000000000005f52601260045260245ffd5b5f61056282610397565b915061056d83610397565b92508261057d5761057c61052b565b5b828204905092915050565b7f436f6d706c6578205472616e73616374696f6e000000000000000000000000005f82015250565b5f6105bc601383610334565b91506105c782610588565b602082019050919050565b5f6040820190508181035f8301526105e9816105b0565b90506105f860208301846104f0565b9291505056fea2646970667358221220f627f400de93a82ee0ba554bce5934c9256914bbe80aa25770321b7ff09842e864736f6c634300081c0033","linkReferences":{}},"methodIdentifiers":{"complexTransaction()":"edd3e74a","simpleTransaction()":"c869c3e5","storageTransaction()":"ce30c5ed"},"id":0}